:0400000007EF00F016
:0A00080007823CED3EF02FEF3EF0C2
:107C42001200120053EC3EF022EC3EF029EF3EF01F
:107C520021EC3EF029EF3EF007EF00F0066A056ADC
:107C6200046A036A026A016A07900792000EF86EBC
:107C7200000123EF3EF00600F2A442EF3EF044EF93
:107C82003EF051EF3EF0010E0126000E02220322C9
:107C92000422F294000ED66E000ED76E51EF3EF023
:107CA200079211009280928292849286010EC26E95
:107CB2000B0EC16EAB0EC06ECB68050ECA6E000E07
:107CC200BB6E000EBE6E0C0EBD6E0C0EBA6E806ADE
:107CD2003F0E926E000E816E000E936E000E816E4C
:107CE200000E826E000E946E000E826E836A000E8B
:0E7CF2009552836A000E846E070E966E120085
:020000040020DA
:08000000FFFFFFFFFFFFFFFF00
:020000040030CA
:0E000000140E191EFF8181FF0FC00FE00F408C
:00000001FF
